{
  "txid":"56df9a9cacaa2e2341ae6f39ec816f7fd5b9f370ecc14ec71204a78eda9e07d1",
  "hash":"56df9a9cacaa2e2341ae6f39ec816f7fd5b9f370ecc14ec71204a78eda9e07d1",
  "version":2,
  "size":1337,
  "vsize":1337,
  "locktime":1977114,
  "vin":[
    {
      "txid":"3a7ccc943f8edebbc272ff68630897af67e9ec8afb7de174c607a97724a43652",
      "vout":942,
      "scriptSig":{
        "asm":"304402204a09da84e6fc89545200aade564a24ada2f3426a122dd4408aa15c206a26ca4f02200d0f8a6d05995fb27a95656a5dbb84f5d28f08074c0cdd71ef5ab0e0a8adaa9a[ALL] 023223ab604845ab5faf8cab4e13c8a04a829e1708b3aa9b1efcae351406143c37",
        "hex":"47304402204a09da84e6fc89545200aade564a24ada2f3426a122dd4408aa15c206a26ca4f02200d0f8a6d05995fb27a95656a5dbb84f5d28f08074c0cdd71ef5ab0e0a8adaa9a0121023223ab604845ab5faf8cab4e13c8a04a829e1708b3aa9b1efcae351406143c37"
      },
      "sequence":4294967294
    },
    {
      "txid":"7b5eee9f3563d1f5a85e182d0ef8c3897772656f57bee5134439b91cf5fcaa52",
      "vout":1311,
      "scriptSig":{
        "asm":"3045022100ed60c86a286543329c317b18917b2e728dd7903d42503dc37dbd666aaddbf1d202206f2b0149582ab8edab4d3604859d4c484605e27d067798825ba48a36c4d42abc[ALL] 023223ab604845ab5faf8cab4e13c8a04a829e1708b3aa9b1efcae351406143c37",
        "hex":"483045022100ed60c86a286543329c317b18917b2e728dd7903d42503dc37dbd666aaddbf1d202206f2b0149582ab8edab4d3604859d4c484605e27d067798825ba48a36c4d42abc0121023223ab604845ab5faf8cab4e13c8a04a829e1708b3aa9b1efcae351406143c37"
      },
      "sequence":4294967294
    },
    {
      "txid":"2ee6764477f333f78e6c0f0bdf08b646f5998108061a3fe91e5aea55917f8c63",
      "vout":0,
      "scriptSig":{
        "asm":"304402201b0605d7650547ea18bb468acbaa8aea3923476caae3c681740c8d6f52bda0a302204c8341806e59b528421f74fde89c4584d66a6f560d1c8a094e5f55330b8f35b8[ALL] 03754f27505332c4538e33d033b2e12e745e8ff1ea023c11e118103f386448316a",
        "hex":"47304402201b0605d7650547ea18bb468acbaa8aea3923476caae3c681740c8d6f52bda0a302204c8341806e59b528421f74fde89c4584d66a6f560d1c8a094e5f55330b8f35b8012103754f27505332c4538e33d033b2e12e745e8ff1ea023c11e118103f386448316a"
      },
      "sequence":4294967294
    },
    {
      "txid":"05b4f035b37a44dc51820b37fd57d866ef8522240ed02c5749c8402f53156de6",
      "vout":427,
      "scriptSig":{
        "asm":"3045022100b2e52e1ba3a395473156c475bf1cd8670016f4ccee19902a01bec4359e306f6002205bd47eb8172c508103b20a871e192213eca07bf0fe182713ce3623c11b1a720d[ALL] 023223ab604845ab5faf8cab4e13c8a04a829e1708b3aa9b1efcae351406143c37",
        "hex":"483045022100b2e52e1ba3a395473156c475bf1cd8670016f4ccee19902a01bec4359e306f6002205bd47eb8172c508103b20a871e192213eca07bf0fe182713ce3623c11b1a720d0121023223ab604845ab5faf8cab4e13c8a04a829e1708b3aa9b1efcae351406143c37"
      },
      "sequence":4294967294
    },
    {
      "txid":"757c5ad9efa17f3fbe8bdb7f23da64a49123509e2068df402123b73582d595e9",
      "vout":644,
      "scriptSig":{
        "asm":"30450221008a15a63bf7ea64bb8133a75e082f95607f6a9bd4a343449aaf535e227557762d02206aa6a30119e1530a8eb921e19c13f62e80e25e61d9a2da743b01106c68149386[ALL] 023223ab604845ab5faf8cab4e13c8a04a829e1708b3aa9b1efcae351406143c37",
        "hex":"4830450221008a15a63bf7ea64bb8133a75e082f95607f6a9bd4a343449aaf535e227557762d02206aa6a30119e1530a8eb921e19c13f62e80e25e61d9a2da743b01106c681493860121023223ab604845ab5faf8cab4e13c8a04a829e1708b3aa9b1efcae351406143c37"
      },
      "sequence":4294967294
    },
    {
      "txid":"cb52007f5ca71d16a40a89f07e3af0d5231ddbc34c7965f98f061e4a55d2adf8",
      "vout":763,
      "scriptSig":{
        "asm":"3044022009aaaae94cae5ebd8ae27eedc42b4558b312f4af1ad90902364495f3d7321154022043f922fcd2b5e0795693eacd8e6e8a9ba9334ec794722b5e433c0b9dfbbc9eb4[ALL] 023223ab604845ab5faf8cab4e13c8a04a829e1708b3aa9b1efcae351406143c37",
        "hex":"473044022009aaaae94cae5ebd8ae27eedc42b4558b312f4af1ad90902364495f3d7321154022043f922fcd2b5e0795693eacd8e6e8a9ba9334ec794722b5e433c0b9dfbbc9eb40121023223ab604845ab5faf8cab4e13c8a04a829e1708b3aa9b1efcae351406143c37"
      },
      "sequence":4294967294
    },
    {
      "txid":"59dbe8e53c91cf75fd6f52c09b691a1b30ab846c867e0032f07130fd47488bb4",
      "vout":2,
      "scriptSig":{
        "asm":"3045022100c5da626348e65c28377c2dd910ddf00525418608483d8b78a110d0d8db4be40a02204ced2ff36d7154ea883d2538edb2d0a0a97e57227f11f6e0823b713d3362ea0f[ALL] 03073237227cc3f029d982ee930c3b4a50e24413554fd2bbf7e5693b6bb5261a1b",
        "hex":"483045022100c5da626348e65c28377c2dd910ddf00525418608483d8b78a110d0d8db4be40a02204ced2ff36d7154ea883d2538edb2d0a0a97e57227f11f6e0823b713d3362ea0f012103073237227cc3f029d982ee930c3b4a50e24413554fd2bbf7e5693b6bb5261a1b"
      },
      "sequence":4294967294
    }
  ],
  "vout":[
    {
      "value":100,
      "n":0,
      "scriptPubKey":{
        "asm":"OP_DUP OP_HASH160 f62e63b9476bac1b9328326d668fa018c7220ade OP_EQUALVERIFY OP_CHECKSIG",
        "hex":"76a914f62e63b9476bac1b9328326d668fa018c7220ade88ac",
        "reqSigs":1,
        "type":"pubkeyhash",
        "addresses":[
          "RXissueSubAssetXXXXXXXXXXXXXWcwhwL"
        ]
      },
      "valueSat":10000000000
    },
    {
      "value":0,
      "n":1,
      "scriptPubKey":{
        "asm":"OP_DUP OP_HASH160 77c5fa192c69c7341f8b6759c5762493c27886be OP_EQUALVERIFY OP_CHECKSIG OP_RVN_ASSET 1772766e740a504f524b5950554e582100e1f5050000000075",
        "hex":"76a91477c5fa192c69c7341f8b6759c5762493c27886be88acc01772766e740a504f524b5950554e582100e1f5050000000075",
        "reqSigs":1,
        "type":"transfer_asset",
        "asset":{
          "name":"PORKYPUNX!",
          "amount":1
        },
        "addresses":[
          "RLCVf2Jb7oPHwAdmzrhpSoQygbKz82Xbs1"
        ]
      },
      "valueSat":0
    },
    {
      "value":"0.01004327",
      "n":2,
      "scriptPubKey":{
        "asm":"OP_DUP OP_HASH160 77c5fa192c69c7341f8b6759c5762493c27886be OP_EQUALVERIFY OP_CHECKSIG",
        "hex":"76a91477c5fa192c69c7341f8b6759c5762493c27886be88ac",
        "reqSigs":1,
        "type":"pubkeyhash",
        "addresses":[
          "RLCVf2Jb7oPHwAdmzrhpSoQygbKz82Xbs1"
        ]
      },
      "valueSat":1004327
    },
    {
      "value":0,
      "n":3,
      "scriptPubKey":{
        "asm":"OP_DUP OP_HASH160 f7addfa2061fb7752a81b7fbb1de409b62efcb63 OP_EQUALVERIFY OP_CHECKSIG OP_RVN_ASSET 1872766e6f13504f524b5950554e582f41495244524f50322175",
        "hex":"76a914f7addfa2061fb7752a81b7fbb1de409b62efcb6388acc01872766e6f13504f524b5950554e582f41495244524f50322175",
        "reqSigs":1,
        "type":"new_asset",
        "asset":{
          "name":"PORKYPUNX\/AIRDROP2!",
          "amount":1
        },
        "addresses":[
          "RXroGqyy9yq7kEKztP4RZWgQrXzmUzMxAL"
        ]
      },
      "valueSat":0
    },
    {
      "value":0,
      "n":4,
      "scriptPubKey":{
        "asm":"OP_DUP OP_HASH160 f7addfa2061fb7752a81b7fbb1de409b62efcb63 OP_EQUALVERIFY OP_CHECKSIG OP_RVN_ASSET 4472766e7112504f524b5950554e582f41495244524f50320001b2c4000000000000011220c48f7efaf0a05d4145f17d95f02858aa7f5fc4e2100bbc6bb666ea07f6a50ce575",
        "hex":"76a914f7addfa2061fb7752a81b7fbb1de409b62efcb6388acc04472766e7112504f524b5950554e582f41495244524f50320001b2c4000000000000011220c48f7efaf0a05d4145f17d95f02858aa7f5fc4e2100bbc6bb666ea07f6a50ce575",
        "reqSigs":1,
        "type":"new_asset",
        "asset":{
          "name":"PORKYPUNX\/AIRDROP2",
          "amount":33,
          "units":0,
          "reissuable":0,
          "ipfs_hash":"QmbZwXWkqq2gPLX26EH5Gr7qeoZNjYFzYw8E6y5WXHBj2t"
        },
        "addresses":[
          "RXroGqyy9yq7kEKztP4RZWgQrXzmUzMxAL"
        ]
      },
      "valueSat":0
    }
  ],
  "hex":"02000000075236a42477a907c674e17dfb8aece967af97086368ff72c2bbde8e3f94cc7c3aae0300006a47304402204a09da84e6fc89545200aade564a24ada2f3426a122dd4408aa15c206a26ca4f02200d0f8a6d05995fb27a95656a5dbb84f5d28f08074c0cdd71ef5ab0e0a8adaa9a0121023223ab604845ab5faf8cab4e13c8a04a829e1708b3aa9b1efcae351406143c37feffffff52aafcf51cb9394413e5be576f65727789c3f80e2d185ea8f5d163359fee5e7b1f0500006b483045022100ed60c86a286543329c317b18917b2e728dd7903d42503dc37dbd666aaddbf1d202206f2b0149582ab8edab4d3604859d4c484605e27d067798825ba48a36c4d42abc0121023223ab604845ab5faf8cab4e13c8a04a829e1708b3aa9b1efcae351406143c37feffffff638c7f9155ea5a1ee93f1a06088199f546b608df0b0f6c8ef733f3774476e62e000000006a47304402201b0605d7650547ea18bb468acbaa8aea3923476caae3c681740c8d6f52bda0a302204c8341806e59b528421f74fde89c4584d66a6f560d1c8a094e5f55330b8f35b8012103754f27505332c4538e33d033b2e12e745e8ff1ea023c11e118103f386448316afeffffffe66d15532f40c849572cd00e242285ef66d857fd370b8251dc447ab335f0b405ab0100006b483045022100b2e52e1ba3a395473156c475bf1cd8670016f4ccee19902a01bec4359e306f6002205bd47eb8172c508103b20a871e192213eca07bf0fe182713ce3623c11b1a720d0121023223ab604845ab5faf8cab4e13c8a04a829e1708b3aa9b1efcae351406143c37feffffffe995d58235b7232140df68209e502391a464da237fdb8bbe3f7fa1efd95a7c75840200006b4830450221008a15a63bf7ea64bb8133a75e082f95607f6a9bd4a343449aaf535e227557762d02206aa6a30119e1530a8eb921e19c13f62e80e25e61d9a2da743b01106c681493860121023223ab604845ab5faf8cab4e13c8a04a829e1708b3aa9b1efcae351406143c37fefffffff8add2554a1e068ff965794cc3db1d23d5f03a7ef0890aa4161da75c7f0052cbfb0200006a473044022009aaaae94cae5ebd8ae27eedc42b4558b312f4af1ad90902364495f3d7321154022043f922fcd2b5e0795693eacd8e6e8a9ba9334ec794722b5e433c0b9dfbbc9eb40121023223ab604845ab5faf8cab4e13c8a04a829e1708b3aa9b1efcae351406143c37feffffffb48b4847fd3071f032007e866c84ab301b1a699bc0526ffd75cf913ce5e8db59020000006b483045022100c5da626348e65c28377c2dd910ddf00525418608483d8b78a110d0d8db4be40a02204ced2ff36d7154ea883d2538edb2d0a0a97e57227f11f6e0823b713d3362ea0f012103073237227cc3f029d982ee930c3b4a50e24413554fd2bbf7e5693b6bb5261a1bfeffffff0500e40b54020000001976a914f62e63b9476bac1b9328326d668fa018c7220ade88ac00000000000000003376a91477c5fa192c69c7341f8b6759c5762493c27886be88acc01772766e740a504f524b5950554e582100e1f505000000007527530f00000000001976a91477c5fa192c69c7341f8b6759c5762493c27886be88ac00000000000000003476a914f7addfa2061fb7752a81b7fbb1de409b62efcb6388acc01872766e6f13504f524b5950554e582f41495244524f5032217500000000000000006076a914f7addfa2061fb7752a81b7fbb1de409b62efcb6388acc04472766e7112504f524b5950554e582f41495244524f50320001b2c4000000000000011220c48f7efaf0a05d4145f17d95f02858aa7f5fc4e2100bbc6bb666ea07f6a50ce5751a2b1e00",
  "blockhash":"0000000000003962db36dd9f843a96885108123c3c2b79bb92bf38f646fede16",
  "height":1977116,
  "confirmations":1374,
  "time":1634490657,
  "blocktime":1634490657
}