{
  "txid":"72514c393c562d7ac6e51620650f76d954d4de6cb3dc036573c198f4b841ea8b",
  "hash":"72514c393c562d7ac6e51620650f76d954d4de6cb3dc036573c198f4b841ea8b",
  "version":2,
  "size":407,
  "vsize":407,
  "locktime":1977324,
  "vin":[
    {"txid":"75113a80cd8d01be88815c641c7f507bf5a19a34d80302b13c9c71f7f96ad132",
    "vout":0,
    "scriptSig":{
      "asm":"3045022100d43af3ba7f09f54265fb0af993228e67127a88e75bfe2be3faa5293a79bdb13b02203890bf82c06209b6186c7689508fbade7552c7a2ffd964517abdc72db99495cf[ALL] 02834c923ad345e5c0a61e75f528d49479ca61785ccda1c6c5ddb1eabaac64b915",
      "hex":"483045022100d43af3ba7f09f54265fb0af993228e67127a88e75bfe2be3faa5293a79bdb13b02203890bf82c06209b6186c7689508fbade7552c7a2ffd964517abdc72db99495cf012102834c923ad345e5c0a61e75f528d49479ca61785ccda1c6c5ddb1eabaac64b915"},
    "sequence":4294967294},
    {"txid":"75113a80cd8d01be88815c641c7f507bf5a19a34d80302b13c9c71f7f96ad132",
    "vout":2,
    "scriptSig":{
      "asm":"30440220498cf758d539d2b0b5e11d35b6e6b8dad01e4f2505fbc7572c1d6e523abb03de02206410e554524dc36e49be5a22487b34270357f0eee51ef4931fbd307836d58c6c[ALL] 02834c923ad345e5c0a61e75f528d49479ca61785ccda1c6c5ddb1eabaac64b915",
      "hex":"4730440220498cf758d539d2b0b5e11d35b6e6b8dad01e4f2505fbc7572c1d6e523abb03de02206410e554524dc36e49be5a22487b34270357f0eee51ef4931fbd307836d58c6c012102834c923ad345e5c0a61e75f528d49479ca61785ccda1c6c5ddb1eabaac64b915"},
    "sequence":4294967294}],
  "vout":[
    {"value":0,
    "n":0,
    "scriptPubKey":{
      "asm":"OP_DUP OP_HASH160 663b0d46fde6e386f78f12d864a226c7b8050992 OP_EQUALVERIFY OP_CHECKSIG OP_RVN_ASSET 1f72766e7412504f524b5950554e582f41495244524f503200e1f5050000000075",
      "hex":"76a914663b0d46fde6e386f78f12d864a226c7b805099288acc01f72766e7412504f524b5950554e582f41495244524f503200e1f5050000000075",
      "reqSigs":1,
      "type":"transfer_asset",
      "asset":{
        "name":"PORKYPUNX\/AIRDROP2",
        "amount":1},
      "addresses":["RJbjk5VTNxBER4iBq61upUWhHuEeYBHD1J"]},
    "valueSat":0},
    {"value":"7.96062136",
    "n":1,
    "scriptPubKey":{
      "asm":"OP_DUP OP_HASH160 e68ce0513c7dc48c91e7d34f82062ebf4a65b70f OP_EQUALVERIFY OP_CHECKSIG",
      "hex":"76a914e68ce0513c7dc48c91e7d34f82062ebf4a65b70f88ac",
      "reqSigs":1,
      "type":"pubkeyhash",
      "addresses":["RWJEFtZV6zFKDGT28JjbQJNi54UZUVDqiC"]},
    "valueSat":796062136}],
  "hex":"020000000232d16af9f7719c3cb10203d8349aa1f57b507f1c645c8188be018dcd803a1175000000006b483045022100d43af3ba7f09f54265fb0af993228e67127a88e75bfe2be3faa5293a79bdb13b02203890bf82c06209b6186c7689508fbade7552c7a2ffd964517abdc72db99495cf012102834c923ad345e5c0a61e75f528d49479ca61785ccda1c6c5ddb1eabaac64b915feffffff32d16af9f7719c3cb10203d8349aa1f57b507f1c645c8188be018dcd803a1175020000006a4730440220498cf758d539d2b0b5e11d35b6e6b8dad01e4f2505fbc7572c1d6e523abb03de02206410e554524dc36e49be5a22487b34270357f0eee51ef4931fbd307836d58c6c012102834c923ad345e5c0a61e75f528d49479ca61785ccda1c6c5ddb1eabaac64b915feffffff0200000000000000003b76a914663b0d46fde6e386f78f12d864a226c7b805099288acc01f72766e7412504f524b5950554e582f41495244524f503200e1f5050000000075b8f1722f000000001976a914e68ce0513c7dc48c91e7d34f82062ebf4a65b70f88acec2b1e00",
  "blockhash":"0000000000007169acbff01cd8354cec752d15ecf49139107d9456c575efd985",
  "height":1977326,
  "confirmations":1147,
  "time":1634503726,
  "blocktime":1634503726}