{
  "txid":"b0330c905df6df7192b1808b40b7770a997cc7a4c6930ed7f79a72e2ae42bd6f",
  "hash":"b0330c905df6df7192b1808b40b7770a997cc7a4c6930ed7f79a72e2ae42bd6f",
  "version":1,
  "size":352,
  "vsize":352,
  "locktime":0,
  "vin":[{
    "txid":"6d0f8813da08226f3cf0f3dbcd37a18ea0e9201d24025f3c7a32899109112b05",
    "vout":0,
    "scriptSig":{
      "asm":"3045022100e8658f9cd959bfcc967ea6c6da25b7ea5e9a6312079ac0230fbc92d1e86b2b1602202dc08bf32f7fad220e9bba2e65d75f681c2717e421aab4884b133bd5fbe0d111[ALL] 024e9fd05f54555fa52292a34f0db1c2467fc3d38e142cfd92b52320f937525dad",
      "hex":"483045022100e8658f9cd959bfcc967ea6c6da25b7ea5e9a6312079ac0230fbc92d1e86b2b1602202dc08bf32f7fad220e9bba2e65d75f681c2717e421aab4884b133bd5fbe0d1110121024e9fd05f54555fa52292a34f0db1c2467fc3d38e142cfd92b52320f937525dad"},
    "sequence":4294967295}],
  "vout":[{
    "value":"99.99000000",
    "n":0,
    "scriptPubKey":{
      "asm":"OP_DUP OP_HASH160 068354584ee25b5ec384150fea2e0834905743bc OP_EQUALVERIFY OP_CHECKSIG",
      "hex":"76a914068354584ee25b5ec384150fea2e0834905743bc88ac",
      "reqSigs":1,
      "type":"pubkeyhash",
      "addresses":["R9sdTbgVYEi65E9raaPJLmv7DrWvdP24Co"]},
    "valueSat":9999000000},{
    "value":"500.00000000",
    "n":1,
    "scriptPubKey":{
      "asm":"OP_DUP OP_HASH160 f62e63b933953a680f3c3a63324948293ba47d16 OP_EQUALVERIFY OP_CHECKSIG",
      "hex":"76a914f62e63b933953a680f3c3a63324948293ba47d1688ac",
      "reqSigs":1,
      "type":"pubkeyhash",
      "addresses":["RXissueAssetXXXXXXXXXXXXXXXXXhhZGt"]},
    "valueSat":50000000000},{
    "value":"0.00000000",
    "n":2,
    "scriptPubKey":{
      "asm":"OP_DUP OP_HASH160 20eb0335818973557ccae8448a91b2f2d77a5236 OP_EQUALVERIFY OP_CHECKSIG OP_RVN_ASSET 1572766e6f10424c554547524153534d494e494e472175",
      "hex":"76a91420eb0335818973557ccae8448a91b2f2d77a523688acc01572766e6f10424c554547524153534d494e494e472175",
      "reqSigs":1,
      "type":"new_asset",
      "asset":{"name":"BLUEGRASSMINING!",
      "amount":"1.00000000"},
      "addresses":["RCHFEcSWDjgtgSsP6MaJ1gGsn6GDqFQpr5"]},
    "valueSat":0},{
    "value":"0.00000000",
    "n":3,
    "scriptPubKey":{
      "asm":"OP_DUP OP_HASH160 20eb0335818973557ccae8448a91b2f2d77a5236 OP_EQUALVERIFY OP_CHECKSIG OP_RVN_ASSET 1f72766e710f424c554547524153534d494e494e47008053ee7ba80a0003010075",
      "hex":"76a91420eb0335818973557ccae8448a91b2f2d77a523688acc01f72766e710f424c554547524153534d494e494e47008053ee7ba80a0003010075",
      "reqSigs":1,
      "type":"new_asset",
      "asset":{
        "name":"BLUEGRASSMINING",
        "amount":"30000000.00000000",
        "units":3,
        "reissuable":1},
      "addresses":["RCHFEcSWDjgtgSsP6MaJ1gGsn6GDqFQpr5"]},
    "valueSat":0}],
  "hex":"0100000001052b11099189327a3c5f02241d20e9a08ea137cddbf3f03c6f2208da13880f6d000000006b483045022100e8658f9cd959bfcc967ea6c6da25b7ea5e9a6312079ac0230fbc92d1e86b2b1602202dc08bf32f7fad220e9bba2e65d75f681c2717e421aab4884b133bd5fbe0d1110121024e9fd05f54555fa52292a34f0db1c2467fc3d38e142cfd92b52320f937525dadffffffff04c0a1fc53020000001976a914068354584ee25b5ec384150fea2e0834905743bc88ac00743ba40b0000001976a914f62e63b933953a680f3c3a63324948293ba47d1688ac00000000000000003176a91420eb0335818973557ccae8448a91b2f2d77a523688acc01572766e6f10424c554547524153534d494e494e47217500000000000000003b76a91420eb0335818973557ccae8448a91b2f2d77a523688acc01f72766e710f424c554547524153534d494e494e47008053ee7ba80a000301007500000000",
  "blockhash":"000000000000b97a37bc2afbb11f4a9fa686786658007401b86948dd44f1b5b4",
  "height":1782301,
  "confirmations":77,
  "time":1622728791,
  "blocktime":1622728791
}